:020000040800F2
:10000000008001208D060008DD060008DD060008DE
:10001000DD060008DD060008DD060008000000001F
:10002000000000000000000000000000DD060008E5
:100030000000000000000000DD0600087D0600084A
:10004000DD060008DD060008DD060008DD06000804
:10005000DD060008DD060008DD060008DD060008F4
:10006000DD060008DD060008DD060008DD060008E4
:10007000DD060008DD060008DD060008DD060008D4
:10008000DD060008DD060008DD060008DD060008C4
:10009000DD060008DD060008DD060008DD060008B4
:1000A000DD060008DD060008DD060008DD060008A4
:1000B000DD060008DD060008DD060008DD06000894
:1000C000DD060008DD060008DD060008DD06000884
:1000D000DD060008DD06000829060008DD06000828
:1000E00079050008DD060008DD060008DD060008C9
:1000F000DD060008DD060008DD060008DD06000854
:10010000DD060008DD060008DD060008DD06000843
:10011000DD060008DD060008DD060008DD06000833
:10012000DD060008DD060008DD060008DD06000823
:10013000DD060008DD060008DD060008DD06000813
:10014000DD060008DD060008DD060008DD06000803
:10015000DD060008DD060008DD060008DD060008F3
:10016000DD060008DD060008DD060008DD060008E3
:10017000DD060008DD060008DD060008DD060008D3
:04018000DD06000890
:1001840010B5054C237833B9044B13B10448AFF3CD
:1001940000800123237010BD040000200000000033
:1001A400E006000808B5034B1BB103490348AFF34D
:1001B400008008BD0000000008000020E0060008E0
:1001C40070B50D4D0D4C641BA4100026A64209D138
:1001D4000B4D0C4C00F082FA641BA4100026A642BE
:1001E40005D170BD55F8043B98470136EEE755F844
:1001F400043B98470136F2E798070008980700087F
:1002040098070008A007000870477047024B13B115
:10021400024800F005B870470000000031020008F1
:10022400002301461A46184600F014B838B5074DA5
:10023400074C641BA4101CB9BDE8384000F054BA44
:10024400013C55F824309847F5E700BFA0070008A3
:10025400A40700082DE9F047DFF874A00646DAF891
:10026400000098460F469146FFF7CEFF164B1C68D8
:100274000CB9164C1C606568DAF800001F2D05DD0A
:10028400FFF7C3FF4FF0FF30BDE8F0879EB104EBEA
:1002940085010122C1F88890D4F88831AA4013431B
:1002A400C4F88831022EC1F8088102BFD4F88C3119
:1002B4001343C4F88C316B1C0235636044F8257019
:1002C400FFF7A3FF0020DFE7240000202800002020
:1002D4000000002008B50A4B1B78012B00D008BD94
:1002E40000F0C4F9074B1B68C01A41F287339842E7
:1002F400F5D9002000F0FEF8014B00221A70EEE759
:10030400BC010020B801002008B5012806D002284D
:1003140012D04F281AD0432826D008BD174800F021
:1003240069F9012000F0E6F8154B01221A7000F07B
:100334009DF9144B1860F0E7134800F05BF90120B5
:1003440000F0D8F80E4B02221A70E6E70F4800F0CE
:1003540051F9012000F0CEF8094B01221A7000F087
:1003640085F9084B1860D8E7094800F043F90020E4
:1003740000F0C0F8024B00221A70CEE7F80600081D
:10038400BC010020B80100200C0700082007000869
:100394003C07000838B500F05FF900F06DF800F094
:1003A400F9F8154800F026F9002414E000F05EF98D
:1003B400044600F0AEF814E0104800F01BF928469B
:1003C400FFF7A2FF12E00E4800F014F92846FFF7E9
:1003D4009BFFFFF77FFF00F049F9031BB3F5FA7F9A
:1003E400E4D200F09DF805460028E5D100F012F9AA
:1003F40005460028E7D1ECE7580700087007000815
:10040400840700081B4AD36C43F00103D3644FF004
:1004140090431A6822F030021A601A6842F02002EF
:100424001A601A6822F0C0021A601A6842F0800248
:100434001A601A6A22F470621A621A6A42F4E0625A
:100444001A621A6A22F470421A621A6A42F4E04288
:100454001A629A6842F030029A609A6842F0C002C6
:100464009A60DA6822F03002DA60DA6822F0C002B8
:10047400DA607047001002401C4BDA6C42F005024F
:10048400DA644FF09042116821F440611160116800
:1004940041F48061116016490A6822F040620A60E2
:1004A4001A6E42F001021A66A3F588335A6922F0E3
:1004B400F0025A615A6942F020025A6103F58063DE
:1004C400DA6842F40052DA609A6822F400529A60C0
:1004D4001A6842F400521A604FF0E022D2F8043154
:1004E40043F48073C2F80431704700BF0010024027
:1004F4000008004830B14FF09042536943F01003B4
:10050400536170474FF09042536923F010035361D5
:1005140070474FF09042536983F020035361704752
:10052400024B187800221A70704700BFC4010020E3
:1005340008B500F09BF80D4B1B68C01A312800D891
:1005440008BD00F093F8094B1B68C01AB0F5FA7F98
:1005540007D9074B01221A7000F088F8034B186082
:10056400EEE7034B02221A70F6E700BFC001002039
:10057400C401002008B5064B5B6913F4005F00D189
:1005840008BD034B4FF400525A61FFF7D1FFF7E760
:100594000004014008B5FFF735FF134A936D43F497
:1005A40000339365114B1A6822F001021A6040F27D
:1005B400A112DA601A6822F480521A605A6822F48E
:1005C40040525A601A6842F00C021A601A6842F0EB
:1005D40001021A601A6842F020021A60044A536841
:1005E40043F04003536008BD001002400044004043
:1005F40000E100E007E0064BDB6913F0800FFAD05E
:100604000130034B9A620278002AF4D1704700BF8C
:1006140000440040024B187800221A70704700BF53
:10062400C50100200A4BDB6913F0200F06D0084BEC
:100634005B6ADBB24F2B02D0432B04D07047054BCF
:100644004F221A707047034B43221A70F6E700BF1B
:1006540000440040C50100204FF0E02304221A6149
:1006640040F69F725A6107221A617047014B18685D
:10067400704700BFC8010020024A136801331360A9
:10068400704700BFC80100200D488546AFF30080C5
:100694000C480D490D4A002302E0D458C4500433D9
:1006A400C4188C42F9D30A4A0A4C002301E01360AF
:1006B4000432A242FBD3FFF783FDFFF76BFEFEE794
:1006C400008001200000002004000020A40700088E
:1006D40004000020CC010020FEE70000F8B500BFB4
:1006E400F8BC08BC9E467047F8B500BFF8BC08BC0F
:0406F4009E46704767
:1006F8005072657369C3B36E2073696D706C650D54
:100708000A0000005072657369C3B36E20646F629B
:100718006C650D0A00000000436F6D616E646F2008
:10072800616272697220726563696269646F0D0A39
:1007380000000000436F6D616E646F206365727224
:10074800617220726563696269646F0D0A00000056
:1007580053797374656D20496E697469616C697A3F
:1007680065640D0A00000000427574746F6E2050B5
:100778007265737365640D0A00000000436F6D6D48
:10078800616E642052656365697665640D0A0000D0
:0807980011020008A90100088C
:0407A00085010008C7
:0407A4002000002011
:040000050800068D5C
:00000001FF
